:020000040800F2
:10000000280C002069020008D91C0008F71100081C
:10001000D51C0008B9050008792900080000000077
:10002000000000000000000000000000592100084E
:10003000E10B0008000000006D1F0008D923000834
:10004000830200088302000883020008830200087C
:1000500083020008830200086D0C00084D0D0008A3
:10006000710D000883020008830200088302000863
:10007000830200088302000883020008830200084C
:10008000830200088302000883020008830200083C
:10009000830200088302000883020008950D00080F
:1000A000830200088302000883020008830200081C
:1000B000B1240008830200088302000883020008BC
:1000C00083020008830200088302000883020008FC
:1000D0008302000815260008830200081D26000878
:1000E000910C0008830200088302000883020008C4
:1000F00083020008830200088302000883020008CC
:1001000083020008830200088302000883020008BB
:1001100083020008830200088302000883020008AB
:10012000830200088302000883020008830200089B
:10013000830200088302000883020008830200088B
:10014000830200088302000883020008830200087B
:10015000830200088302000883020008830200086B
:10016000830200088302000883020008830200085B
:10017000830200088302000883020008830200084B
:10018000830200088302000800F002F800F05CF827
:100190000AA090E8000C82448344AAF10107DA45E2
:1001A00001D100F051F8AFF2090EBAE80F0013F0D8
:1001B000010F18BFFB1A43F0010318472429000060
:1001C000442900000A444FF0000C10F8013B13F0E2
:1001D000070408BF10F8014B1D1108BF10F8015BA0
:1001E000641E05D010F8016B641E01F8016BF9D193
:1001F00013F0080F1EBF10F8014BAD1C0C1B09D1EA
:100200006D1E58BF01F801CBFAD505E014F8016B5B
:1002100001F8016B6D1EF9D59142D6D370470000ED
:100220000023002400250026103A28BF78C1FBD8FF
:10023000520728BF30C148BF0B6070471FB502F09E
:1002400045FC1FBD10B510BD00F07AF81146FFF750
:10025000F5FF02F0F3FB00F098F803B4FFF7F2FFAC
:1002600003BC00F09FF80000094880470948004798
:10027000FEE7FEE7FEE7FEE7FEE7FEE7FEE7FEE756
:10028000FEE7FEE704480549054A064B70470000B3
:10029000F12300088901000828060020280C00200E
:1002A00028080020280800204FF000020429C0F090
:1002B000128010F0030C00F01B80CCF1040CBCF198
:1002C000020F18BF00F8012BA8BF20F8022BA1EBEA
:1002D0000C0100F00DB85FEAC17C24BF00F8012BCF
:1002E00000F8012B48BF00F8012B70474FF00002C7
:1002F00000B5134694469646203922BFA0E80C501C
:10030000A0E80C50B1F12001BFF4F7AF090728BFF6
:10031000A0E80C5048BF0CC05DF804EB890028BF72
:1003200040F8042B08BF704748BF20F8022B11F09B
:10033000804F18BF00F8012B704770477047704717
:10034000754600F02BF8AE4605006946534620F08E
:100350000700854618B020B5FFF794FFBDE82040A0
:100360004FF000064FF000074FF000084FF0000B71
:1003700021F00701AC46ACE8C009ACE8C009ACE824
:10038000C009ACE8C0098D46704710B50446AFF30C
:1003900000802046BDE81040FFF75FBF004870476F
:1003A000C805002001491820ABBEFEE72600020068
:1003B000704721B1826842F00102826003E08268E6
:1003C00022F00102826070470021084A1168084A41
:1003D0001140D0E900231A4383681A43C3681A43C3
:1003E0001143044AC2F8041370470000042301407B
:1003F000E030FCFF002001400146C86C80B270472D
:100400000246002013680B400BB1012000E00020E1
:100410007047000030B50246002000235068104CA1
:1004200020400D790C6844EA052420435060906810
:100430000C4C2040D1E903542C438D682C434D795A
:1004400044EA450420439060D06A20F470000C7D9B
:10045000641EE4B2234340EA0350D06230BD000082
:10046000FFFEFFFCFDF7FFC0F0B504460D4600207F
:100470000021092D11DDE068A5F10A0606EB46070B
:10048000072606FA07F18843A5F10A0606EB460699
:1004900003FA06F10843E0600CE0206905EB45072C
:1004A000072606FA07F1884305EB450603FA06F12D
:1004B00008432061072A0FDA606B561E06EB860799
:1004C0001F2606FA07F18843561E06EB860605FA34
:1004D00006F10843606322E00D2A0FDA206BD61F75
:1004E00006EB86071F2606FA07F18843D61F06EBA0
:1004F000860605FA06F10843206310E0E06AA2F1DF
:100500000D0606EB86071F2606FA07F18843A2F1BF
:100510000D0606EB860605FA06F10843E062F0BD1B
:10052000816841F0804181607047000000B58DB066
:100530000BA800F01CFE03208DF8300000208DF881
:1005400033000121042001F013FD01200B900BA9C1
:10055000174800F094FD0121080201F029FD012156
:10056000080201F035FD00214FF4807001F030FDEC
:10057000002007900A9009904FF48030089007A857
:10058000FFF722FF002001908DF808008DF8090088
:100590000390059001208DF8180001A90548FFF788
:1005A00039FF01210348FFF704FF0DB000BD000033
:1005B000000802400020014000BFFEE710B50F48D0
:1005C0000079052818D2DFE800F003070B0F1300AD
:1005D0000B4800F073F80FE00A4800F06FF80BE0EA
:1005E000094800F06BF807E0084800F067F803E0FE
:1005F000074800F063F800BF00BF10BD7401002081
:1006000080841E0040420F002A2C0A0020A107000F
:10061000801A060070B505460E462C461FE0052CD4
:100620000ED004DC032C07D0042C10D105E0102CD4
:1006300007D0182C0BD105E00CE0FFF7BFFF09E055
:1006400008E007E00849087E00F09AFA02E001F0AD
:100650001BFE00BF00BF0548005D2044C4B2A819BE
:10066000A042DCDC70BD000074010020BA00002054
:1006700070B503460C460F48C05C904201DA012079
:1006800070BD002111E0605CCD180B4E16F81550BE
:10069000A84206DB605CCD1806EB45056D78A842E4
:1006A00001DD0220ECE7481CC1B29142EBDB0020E7
:1006B000E6E70000BA0000201800002010B504464C
:1006C000204602F08BF8204602F0EEF810BD70B51F
:1006D000C2B004460D464FF4807102A8FFF706FE33
:1006E000002001900090002600BF1DE0411C615CCD
:1006F000C8290CD1215C8DF80010411C615C8DF87B
:100700000110811C615C8DF8021001260EE0215C55
:100710008DF80410411C615C8DF80510811C615C32
:100720008DF80610C11CC8B2A842DFDB00BF012E45
:1007300013D19DF8050000F013F801280DD19DF8A4
:1007400000209DF8021002A800F05CFA28B99DF87C
:10075000002002A9002001F0BFFC42B070BD0000E3
:10076000F8B506460EB90120F8BD0020009001F052
:1007700073FE04460D4630E01A4802F070F9002876
:1007800020DD9DF801008DF800009DF802008DF835
:100790000100144802F06AF9C0B28DF802009DF819
:1007A0000000FF2809D19DF80100FF2805D19DF820
:1007B0000200B04201D10120D6E701F04DFE04460F
:1007C0000D460AE001F048FE021B61EB05016423BF
:1007D00000209A1A884100D200E0CDE700BF002037
:1007E000C2E7000020010020014840787047000067
:1007F0002A01002070B540F22551214801F02BFF5D
:10080000F8B11F4801F0E0FF0446E1B21D4802F0D4
:1008100049F9E1B21C4802F045F91C48007880B95A
:1008200001201A490870012240F22661184801F09F
:100830003CFF144802F01AF985B22946144801F029
:10084000C8FF40F226610E4801F005FFB0B1114823
:1008500002F005F9002808DD0E4802F007F985B21C
:100860002946074801F0B5FF08E0002000F06CF9C8
:10087000002240F22661024801F017FF70BD00001F
:10088000001001401001002020010020280100205C
:1008900000480040180100201CB501208DF804001C
:1008A00000208DF8060003208DF8050000208DF84B
:1008B00007000121022001F05BFB10200090694637
:1008C000144800F0DCFB0121022001F051FB202044
:1008D000009069460F4800F0D2FB0121022001F090
:1008E00047FB4FF48070009069460A4800F0C7FB50
:1008F000094801F073FF084801F0D6FF00F0EEF858
:10090000012000F03DF9012004490876002000F0A4
:100910001BF91CBD0004024040420F00740100207E
:1009200010B58CE05948007800F0020038B3584800
:1009300002F09CF8C1B25748B0F80021B0F80001AD
:10094000401C544BA3F8000118468154B0F8000134
:100950005149098888426EDB4F480188184601F0EA
:100960008FFA4D4801884B48FFF79EFC002049490B
:10097000A1F8000148490880444908705BE04348F9
:10098000007800F0010000283ED0414802F06EF8E7
:10099000C2B24048B0F80011B0F80001401C3D4B15
:1009A000A3F8000118464254B0F80001032842DDC4
:1009B0001946887801F056FAD0B13648C078001D43
:1009C0003549088008460088F02803DA02202F49BC
:1009D000087030E02F48B0F80011FFF765FC0020E8
:1009E0002C49A1F800012C4908802849087022E010
:1009F0002848B0F80011FFF757FC00202549A1F85E
:100A000000012249087016E0224840782149087008
:100A10001F4802F02BF81F49487008460078FF284D
:100A200009D108464078FF2805D10220A1F800012D
:100A300001201649087001F00FFD184A03C214483E
:100A400002F00DF800283FF76DAF10480078E0B1D4
:100A500001F002FD114AD2E9004203460846114660
:100A60001A1B60EB0100642300219A1A81410CD209
:100A70000848B0F80011FFF717FC00200549A1F85D
:100A80000001054908800149087010BD2E010020B1
:100A900020010020960400203001002038010020B1
:100AA00030B5C1B004460D460B480078C82810D1B7
:100AB0004FF4807101A8FFF719FC2A46214601A8CE
:100AC00000F0A0F820B92A4601A9002001F004FB9B
:100AD00000BF41B030BD00002901002010B5F02258
:100AE0000749084801F0D7FFF0220749074801F0FD
:100AF000D2FFF0220649074801F0CDFF10BD0000EB
:100B0000C601002010010020B602002018010020BC
:100B1000A60300202001002070B505460E4600BF48
:100B2000FFF762FE0128FBD0012000F00DF8002441
:100B300004E0285D01F0A8FE601C84B2B442F8DB3A
:100B4000002000F001F870BD10B50446012C08D15A
:100B50002021094800F007FB1021074800F005FBA1
:100B600007E01021044800F0FEFA2021024800F0BE
:100B7000FCFA0248447010BD000402402A01002023
:100B800010B50446012C07D10102084800F0EDFA27
:100B900001200749087007E04FF48071034800F016
:100BA000E2FA00200249087010BD00000004024073
:100BB0002A01002070B504460D46164632462946E5
:100BC000204600F02FF840B904480078C82804D126
:100BD00000221146104601F07FFA70BD2901002065
:100BE00070470000002005E00449095C044A1154E4
:100BF000411CC8B21828F7DB704700000000002035
:100C00007401002030B50346002005E04418044D6F
:100C10002C5D1C54441CE0B29042F7DB002030BD38
:100C20007401002070B505460E4614462246314632
:100C30002846FFF71DFD38B10B48007C022801DA79
:100C4000022070BD0120FCE7002005E0315C421964
:100C5000054B9954411CC8B2A042F7DB21462846F7
:100C6000FFF7D8FC0020ECE77401002010B501204C
:100C700000F0E6F840B1012000F0DCF8034800681D
:100C800010B102480068804710BD000060010020DC
:100C900010B54FF4806000F0D3F848B14FF4806095
:100CA00000F0C8F82848006810B127490868804754
:100CB0004FF4006000F0C4F848B14FF4006000F059
:100CC000B9F82148406810B11F49486880474FF47F
:100CD000805000F0B5F848B14FF4805000F0AAF809
:100CE0001948806810B11849886880474FF400504F
:100CF00000F0A6F848B14FF4005000F09BF81248FD
:100D0000C06810B11049C86880474FF4804000F0B7
:100D100097F848B14FF4804000F08CF80A48006919
:100D200010B10949086980474FF4004000F088F885
:100D300048B14FF4004000F07DF80348406910B11D
:100D400001494869804710BDB005002010B5022058
:100D500000F076F840B1022000F06CF8034800681B
:100D600010B102480068804710BD000064010020F7
:100D700010B5042000F064F840B1042000F05AF8E7
:100D80000348006810B102480068804710BD0000A9
:100D90006801002010B54FF4806000F051F848B1B0
:100DA0004FF4806000F046F82148006810B12049F7
:100DB000086880474FF4006000F042F848B14FF4F3
:100DC000006000F037F81A48406810B118494868C8
:100DD00080474FF4805000F033F848B14FF4805012
:100DE00000F028F81248806810B1114988688047DF
:100DF0004FF4005000F024F848B14FF4005000F0D8
:100E000019F80B48C06810B10949C86880474FF409
:100E1000804000F015F848B14FF4804000F00AF827
:100E20000348006910B102490869804710BD0000FD
:100E30009C0500200149086070470000143C0140F7
:100E400001460020034A12680A400AB1012000E06E
:100E500000207047143C0140002123498279002A78
:100E60003AD00A46126803689A430B461A600A1D74
:100E7000126803689A430B1D1A60027911440A68CC
:100E800003681A430A60184A0832126803689A43D2
:100E9000154B08331A601A1D126803689A43124BE7
:100EA0000C331A604279102A0ED11A1F1268036897
:100EB0001A430D4B08331A601A1D126803681A434F
:100EC000094B0C331A600DE00749427911440A6856
:100ED00003681A430A6005E0027911440A6803684E
:100EE0009A430A6070470000003C014001460248F6
:100EF0000160002070470000600100203EB50446FC
:100F00000121880301F054F80021204601F026F960
:100F10000120019000208DF8080010208DF80900B4
:100F200001208DF80A0001A8FFF796FF03208DF835
:100F300001008DF8020001208DF8030006208DF8D5
:100F40000000684600F0CAFE3EBDFEB505460C46F0
:100F5000012000FA04F60121800301F029F821465E
:100F6000284601F0FBF8019600208DF808001020BB
:100F70008DF8090001208DF80A0001A8FFF76CFF29
:100F800003208DF801008DF8020001208DF8030088
:100F900028208DF80000684600F0A0FEFEBD00008D
:100FA00002460A2A01DB0F2A01DD01207047A2F167
:100FB0000A00024B43F820100020F7E7B00500209C
:100FC00001460248016000207047000064010020D3
:100FD0003EB504460121880300F0EAFF01212046C6
:100FE00001F0BCF80220019000208DF808001020CC
:100FF0008DF8090001208DF80A0001A8FFF72CFFE9
:1010000003208DF801008DF8020001208DF8030007
:1010100007208DF80000684600F060FE3EBD00002D
:10102000014602480160002070470000680100206E
:101030003EB504460121880300F0BAFF0221204694
:1010400001F08CF80420019000208DF80800102099
:101050008DF8090001208DF80A0001A8FFF7FCFEB9
:1010600003208DF801008DF8020001208DF80300A7
:1010700008208DF80000684600F030FE3EBDF0B557
:101080000A4600210023002400BF3DE0012505FAA7
:1010900001F3156805EA03049C4234D105684F004A
:1010A0000326BE40B543056015794E00B54006687D
:1010B000354305601579012D02D01579022D16D121
:1010C00085684F000326BE40B543856055794E00C4
:1010D000B540866835438560456801268E40B54336
:1010E0004560456896798E40B6B235434560C5681F
:1010F0004F000326BE40B543C560D5794E00B540CC
:10110000C6683543C560491C1029BFD3F0BDF0B592
:10111000002300244D07ED0E02FA05F3CE1000F176
:10112000200555F826504E07F70E0F26BE40B54352
:10113000CF1000F1200646F82750CE1000F1200510
:1011400055F8265045EA0304CE1000F1200545F875
:101150002640F0BD0246002013690B400BB1012070
:1011600000E00020704741837047018370474FF6CD
:10117000FF7101600021017141718171C17170477E
:1011800070B5044600250723012221460D48FFF7CC
:101190006BF90C48FFF7C4F909E0012001F042FCAB
:1011A000681C85B2B5F5967F01DB002070BD022179
:1011B0000448FFF725F90028EFD00248FFF71CF993
:1011C000F4E70000002001402DE9F04107460C46FD
:1011D0000025002608E03846FFF7D2FF054401202D
:1011E00001F020FC701CC6B2A642F4DBB5FBF4F0A3
:1011F00080B2BDE8F08100BFFEE7000010B500201E
:101200000F4908600F48006820F440200D4908602D
:101210000846006840F48020086000200A49C1F8B0
:10122000A402022001F0FEFB012005490860022013
:1012300001F0F8FB00200549C1F8A00210BD000034
:10124000A00240420008024000004142000040422B
:101250001CB50121062000F08BFE4FF48070009039
:1012600001208DF8040000208DF8060003208DF881
:10127000050001208DF8070069460E48FFF7FFFEC4
:101280004FF40070009001208DF8040000208DF8CC
:10129000060003208DF8050001208DF8070069463F
:1012A0000548FFF7ECFE0120044908600449C1F835
:1012B000A4021CBD0000024000080240A0024042FF
:1012C0000000414210B500200F4908600F48006837
:1012D00020F440200D4908600846006840F4802052
:1012E000086001200A49C1F8A402022001F09AFB1B
:1012F000012005490860022001F094FB0020054907
:10130000C1F8A00210BD0000A00240420008024047
:10131000000041420000404270B5054600241548D7
:10132000006820F4402013490860084600680860FF
:10133000002615E0002010490860022001F072FB31
:1013400001200E49C1F8A0026006040E0C48006896
:1013500008B1601CC4B2012001F064FB701CC6B26D
:10136000082EE7DB15B9FFF7ADFF01E0FFF746FFF9
:10137000204670BD00080240A002404200004042EA
:101380002402414270B504461448006820F440200D
:10139000124908600846006840F480200860002078
:1013A0000F490860002516E0E0090E490860600654
:1013B000040E022001F036FB01200B49C1F8A00207
:1013C000022001F02FFB002005490860022001F0F7
:1013D00029FB681CC5B2082DE6DB70BD0008024081
:1013E000A0024042A40241420000404210B50F4812
:1013F000006820F440200D4908600846006840F469
:101400008020086001200A4908600A49C1F8A0024A
:10141000042001F007FB002005490860042001F0CA
:1014200001FB00200349C1F8A00210BD00080240E2
:10143000A40241420000404210B50F48006820F469
:1014400040200D4908600846006840F4802008608C
:1014500000200A4908600A49C1F8A402042001F0EA
:10146000E1FA0120054908600549C1F8A4020420F9
:1014700001F0D8FA10BD000000080240A00240426E
:101480000000414210B500241248006820F44020BA
:101490001049086008460068086001200E4908608D
:1014A00001F0C0FA01200D49C1F8A00201F0BAFA1A
:1014B00006E0641CFA2C03D9FFF7BEFF012010BD23
:1014C0000548803800680028F3D10549086000BF4E
:1014D000F5E7000000080240A4024142000040423B
:1014E000A002404210B586B004460020049005904A
:1014F00002900390009001901E2000F08AFB00F003
:101500000200E0B1062204A9222000F0A0FB9DF811
:1015100010009DF8111040EA012000B220809DF8D3
:1015200012009DF8131040EA012000B260809DF87F
:1015300014009DF8151040EA012000B2A0801E2082
:1015400000F067FB00F00100E0B1062202A92820AC
:1015500000F07DFB9DF808009DF8091040EA01208D
:1015600000B2E0809DF80A009DF80B1040EA0120CF
:1015700001B221819DF80C009DF80D1040EA012078
:1015800001B261811149002000F03FF9D8B16946EC
:10159000002000F017F99DF800009DF8011040EAC6
:1015A000012000B2A0819DF802009DF8031040EADE
:1015B000012000B2A0819DF804009DF8051040EACA
:1015C000012000B2A08106B010BD00007101002012
:1015D00010B5FFF73DFE00F0F6FA00F0D3FA10BDAB
:1015E00010B54FF400610948FFF7B4FD30B1084869
:1015F000007820F001000649087005E004480078F2
:1016000040F001000249087010BD000000080240CF
:101610007001002010B54FF480510948FFF79AFD82
:1016200030B10848007820F002000649087005E053
:101630000448007840F002000249087010BD000024
:10164000000802407001002010B501210848FFF792
:1016500081FD30B10748007820F00400054908708A
:1016600005E00448007840F004000249087010BD0D
:10167000000C02407001002010B502210848FFF75D
:1016800069FD30B10748007820F00800054908706E
:1016900005E00448007840F008000249087010BDD9
:1016A000000C02407001002010B504210848FFF72B
:1016B00051FD30B10748007820F01000054908704E
:1016C00005E00448007840F010000249087010BDA1
:1016D000000C0240700100201CB500208DF80400B1
:1016E00003208DF8050001208DF80700012104205A
:1016F00000F03EFC4FF40060009069462748FFF779
:10170000BEFC0B210220FFF720FC25490B20FFF730
:1017100047FC0121042000F02BFC4FF48050009086
:1017200069461E48FFF7ABFC0C210220FFF70DFCB9
:101730001C490C20FFF734FC0121082000F018FCA4
:101740000120009069461848FFF799FC0320FFF735
:10175000D5FB1648FFF7CAFB0121082000F008FC62
:101760000220009069461048FFF789FC0320FFF72C
:101770002FFC0F48FFF724FC0121082000F0F8FBA4
:101780000420009069460848FFF779FC0320FFF722
:101790004FFC0848FFF744FC1CBD00000008024055
:1017A000E115000815160008000C02404916000853
:1017B00079160008A9160008014800787047000053
:1017C000700100202DE9F04780460D464FF00209D8
:1017D0000024002615E000270FE02A1904F1280054
:1017E000C1B20123404600F022F810B90020BDE844
:1017F000F087601CC4B2781CC7B24F45EDDB701C8B
:10180000C6B2032EE7DB0120F1E770B505460C46B2
:10181000012322462721284600F009F808B90020B4
:1018200070BD207800F0080020700120F8E72DE955
:10183000F04106460C4615461F46FFF7D7FD3C20F3
:10184000FFF7A0FDFFF71EFE20B1FFF7F5FD00201A
:10185000BDE8F0812046FFF795FDFFF713FEFFF787
:10186000C5FD3D20FFF78EFDFFF70CFE0020FFF7C2
:1018700053FD2870FFF7E0FD0120E9E738B5054684
:101880000C4601236A4624212846FFF7D0FF08B9F9
:10189000002038BD9DF8000020F0400000909DF829
:1018A00000002043009001236A462421284600F0CE
:1018B000A5F808B90020ECE70120EAE738B50546AD
:1018C0000C4601236A4621212846FFF7B0FF08B9DC
:1018D000002038BD9DF8000020F0600000909DF8C9
:1018E00000002043009001236A462121284600F091
:1018F00085F808B90020ECE70120EAE738B505468D
:101900000C4601236A4620212846FFF790FF08B9BC
:10191000002038BD9DF8000020F0600000909DF888
:1019200000002043009001236A462021284600F051
:1019300065F808B90020ECE70120EAE738B505466C
:101940000C4601236A4623212846FFF770FF08B999
:10195000002038BD9DF8000020F00C0000909DF89C
:1019600000002043009001236A462321284600F00E
:1019700045F808B90020ECE70120EAE738B505464C
:101980000C4601236A4620212846FFF750FF08B97C
:10199000002038BD9DF8000020F01C0000909DF84C
:1019A00000002043009001236A462021284600F0D1
:1019B00025F808B90020ECE70120EAE738B505462C
:1019C0000C4601236A4622212846FFF730FF08B95A
:1019D000002038BD9DF8000020F0030000909DF825
:1019E00000002043009001236A462221284600F08F
:1019F00005F808B90020ECE70120EAE72DE9F041FD
:101A000006460C4615461F46FFF7F0FC3C20FFF744
:101A1000B9FCFFF737FD20B1FFF70EFD0120BDE84F
:101A2000F0812046FFF7AEFCFFF72CFD2878FFF78A
:101A3000A9FCFFF727FDFFF7FFFC0120EFE70000FF
:101A40001CB501208DF8040000208DF8060003204D
:101A50008DF8050001208DF807000121082000F015
:101A600087FA0820009069461F48FFF708FB01210C
:101A7000082000F07DFA1020009069461A48FFF710
:101A8000FEFA0121082000F073FA20200090694638
:101A90001548FFF7F4FA0121082000F069FA402008
:101AA000009069461048FFF7EAFA0121082000F08B
:101AB0005FFA8020009069460B48FFF7E0FA0821A2
:101AC0000948FFF752FB10210748FFF74EFB202182
:101AD0000548FFF74AFB40210348FFF746FB8021FA
:101AE0000148FFF742FB1CBD000C024010B5044644
:101AF000062C1DD2DFE804F01C03080D1217082184
:101B00000C48FFF732FB13E010210A48FFF72DFBCA
:101B10000EE020210748FFF728FB09E04021054897
:101B2000FFF723FB04E080210248FFF71EFB00BF04
:101B300000BF10BD000C024010B50446062C1DD29B
:101B4000DFE804F01C03080D121708210C48FFF70A
:101B50000AFB13E010210A48FFF705FB0EE02021E5
:101B60000748FFF700FB09E040210548FFF7FBFAB3
:101B700004E080210248FFF7F6FA00BF00BF10BD65
:101B8000000C024010B510210020FFF7F7FE0446BC
:101B900060210020FFF792FE044640210020FFF75D
:101BA0006DFE044640210020FFF7A8FE04460821F0
:101BB0000020FFF7C3FE044600210846FFF7FEFEA3
:101BC0000446204610BD10B51C21112000F052F82B
:101BD0003821192000F04EF86021102000F04AF85A
:101BE0009021582000F046F800215C2000F042F8D7
:101BF00002215B2000F03EF820215E2000F03AF840
:101C00004021592000F036F80121172000F032F869
:101C100010BD70B504460025FFF7E8FBD420FFF7A0
:101C2000B1FBFFF72FFC2046FFF7ACFBFFF72AFCC8
:101C3000FFF7DCFBD520FFF7A5FBFFF723FC002017
:101C4000FFF76AFB0546FFF7F7FB284670BD2DE955
:101C5000F04107460D461646002407E03846FFF7D8
:101C6000D8FF2855781CC7B2601CC4B2B442F5DB5B
:101C7000BDE8F08170B505460C46FFF7B7FBD420F0
:101C8000FFF780FBFFF7FEFB2846FFF77BFBFFF724
:101C9000F9FB2046FFF776FBFFF7F4FBFFF7CCFBE1
:101CA0000A2000F0ADFE70BD71B600BFBFF34F8FCC
:101CB0000648006800F4E06005490843001D034938
:101CC0000860BFF34F8F00BF00BFFEE70CED00E0E0
:101CD0000000FA0500BFFEE77047000070B5002164
:101CE00000230F22C4781CB3174C246804F4E0646A
:101CF000C4F5E064C4F30721C1F10404E3B20A416E
:101D000044789C40E1B28478144021430C07210EB2
:101D10000E4C05786155047804F01F050124AC4091
:101D200005786D11AD0005F1E025C5F8004109E029
:101D3000047804F01F050124AC40054D06787611A7
:101D400045F8264070BD00000CED00E000E400E026
:101D500080E100E002490143024A1160704700003F
:101D60000000FA050CED00E070B540F22551214865
:101D700000F071FCF8B11F4800F026FD0446E1B206
:101D80001D4800F08FFEE1B21C4800F08BFEFEF70C
:101D90002BFD80B90120FEF7D7FE012240F226611B
:101DA000174800F082FC144800F060FE85B2294616
:101DB000134800F00EFD40F226610E4800F04BFC87
:101DC000B0B1104800F04BFE002808DD0D4800F0CF
:101DD0004DFE85B22946074800F0FBFC08E00020D4
:101DE00009490870002240F22661024800F05DFCBB
:101DF00070BD0000004800401801002020010020B4
:101E000000100140100100202801002070B5054697
:101E10000E4600BF094800780028FBD10120074981
:101E20000870002404E0285D00F096FD601C84B278
:101E3000B442F8DB00200149087070BD2801002081
:101E400010B502460023022004E0145C1C44E3B2F7
:101E5000441CA0B28842F8DBFF2B01D1002010BD4A
:101E60000120FCE70146C82901D0FE2903D103481F
:101E70000170012070470020FCE7000029010020CC
:101E8000F0B5C1B004460E4631462046FFF7D8FFF4
:101E900000285DD1E078801EC5B227794FF48071AB
:101EA00001A8FEF723FA002005E0411D615C01AAAC
:101EB0001154411CC8B2A842F7DB052F29D008DC19
:101EC000012F0FD0022F13D0032F18D0042F37D19A
:101ED0001EE0062F1ED0082F1DD0832F23D0922F57
:101EE0002ED121E000221146104600F0F5F82DE039
:101EF0009DF805109DF80400FEF7D2FD26E0691E4E
:101F0000CAB29DF804000DF10501FEF753FE1DE075
:101F10001CE01BE000BF00221146104600F0DCF878
:101F2000FFF7C2FE12E011E00E480088401C0D4988
:101F30000880681EC1B20DF10500FEF7C8FB05E080
:101F400000221146402000F0C7F800BF00BF04E0A7
:101F500000221146102000F0BFF80020024908704E
:101F600041B0F0BD2C010020290100207047000085
:101F700029B1064A12680243044B1A6004E0034A7E
:101F800012688243014B1A607047000030380240EB
:101F900029B1064A12680243044B1A6004E0034A5E
:101FA00012688243014B1A607047000040380240BB
:101FB00029B1064A12680243044B1A6004E0034A3E
:101FC00012688243014B1A60704700004438024097
:101FD00029B1064A12680243044B1A6004E0034A1E
:101FE00012688243014B1A60704700002438024097
:101FF000F0B5002100220024022500260223324FE2
:102000003F6807F00C0121B1042905D0082937D118
:1020100005E02E4F076036E02D4F076033E02A4F72
:102020003F1F3F68C7F38056274F3F1F3F6807F0A9
:102030003F036EB1264FB7FBF3F7DFF88CC0ACF16E
:10204000040CDCF800C0CCF3881C07FB0CF40CE09B
:102050001E4FB7FBF3F7DFF870C0ACF1040CDCF8EF
:1020600000C0CCF3881C07FB0CF4174F3F1F3F68E0
:10207000C7F301477F1C7D00B4FBF5F7076002E062
:10208000124F076000BF00BF0F4F3F6807F0F0011D
:102090000909104F7A5C0768D74047600A4F3F68CC
:1020A00007F4E051890A0B4F7A5C4768D740876094
:1020B000054F3F6807F46041490B064F7A5C47685B
:1020C000D740C760F0BD0000083802400024F4008B
:1020D00000127A0040010020F0B5C1B005460E465E
:1020E00014460027F72103A8FEF700F9194903C990
:1020F000CDE90101A01CC0B28DF807008DF8085091
:102100003EB904F1CA002844C043C0B28DF80900AA
:1021100015E0002008E0325C01AB411D5A54315CEF
:102120003944CFB2411CC8B2A042F4DB04F1CA006A
:1021300028443844C043C1B201AA601D1154A11DF6
:1021400001A8FFF763FEA11D01A8FEF7E5FC41B061
:10215000F0BD0000D82A00087047000030B500220A
:102160008B071C0F0F2303FA04F20B4B8C1053F850
:1021700024309343084C8D1044F8253023468C10AE
:1021800053F824308C07240F00FA04F42343024C44
:102190008D1044F8253030BD0838014010B500F0EE
:1021A00005F800F00FF800F039F810BD10B50A215D
:1021B0000846FFF709F80249A1F8390010BD0000F0
:1021C0007401002000B585B014216846FEF78EF832
:1021D0006846FFF787F9BDF800000F49C884BDF8CD
:1021E00002000885BDF804004885BDF80600888512
:1021F000BDF80800C885BDF80A000886BDF80C00C7
:10220000A1F83300BDF80E00A1F83500BDF81000AC
:10221000A1F8370005B000BD7401002010B50024FE
:10222000FFF7CAFA044604F0010009498877C4F3AD
:102230004000C877C4F3800081F82000C4F3C000D8
:1022400081F82100C4F3001081F8220010BD0000C5
:102250007401002010B5FEF769F9FFF7F1FBFFF7F5
:102260003BFAFFF7B5F9054800F0CEF942F2CF018D
:1022700041F2873000F09CF910BD00008122000877
:1022800010B5FFF78BFF10BD10B500F001F810BDC1
:1022900010B5002410E00A48408B0121A1400840FD
:1022A00020B1611CC8B2FFF747FC03E0611CC8B253
:1022B000FFF71CFC601CC4B2052CECDB10BD000059
:1022C000740100200CB50020019000903448006893
:1022D00040F480303249086000BF3148006800F4A3
:1022E000003000900198401C0190009818B90198A6
:1022F000B0F5A04FF1D12A48006800F4003010B1C9
:102300000120009001E0002000900098012846D1B3
:1023100023484030006840F0805021494031086037
:102320002048006840F440401E4908601C480830BE
:1023300000681B49083108600846006840F4004006
:1023400008600846006840F4A05008601648091F5D
:102350000860081F006840F08070091F086000BF17
:102360000F48006800F000700028F9D040F20570B6
:102370000E4908600A480830006820F00300084948
:10238000083108600846006840F00200086000BF9D
:1023900003480830006800F00C000828F8D10CBD94
:1023A000003802400070004008544007003C0240E2
:1023B000042808D14FF0E021096941F004014FF0F1
:1023C000E022116107E04FF0E021096921F00401EA
:1023D0004FF0E022116170470448036840685A1CBE
:1023E00040F1000001490A60486070475001002038
:1023F00010B51548006840F4700013490860134890
:10240000006840F001001149086000200F490831C0
:1024100008600E4800680E4908400C4908600D48E5
:10242000091D0860081F006820F48020091F08604B
:10243000002006490C310860FFF744FF4FF00060B0
:1024400001498039086010BD88ED00E00038024085
:10245000FFFFF6FE10300024014908684968704704
:102460005001002010B500BF0F48016840684FF0D0
:10247000E02082690C4C236864684B402343F3D10D
:102480000A48006800EB4003C3EBC010C2EBC00079
:10249000064B1B68B0FBF3F001EB4103C3EBC11328
:1024A00000EBC30010BD00005001002058010020C7
:1024B00010B50121880700F01EF8012809D101217B
:1024C000800700F009F80348006810B1014800686F
:1024D000804710BD6C010020CA430282704721B1C1
:1024E000028842F00102028004E002884FF6FE7387
:1024F0001A400280704730B50246002000230024B5
:10250000158A05EA0103958905EA010413B10CB1A6
:10251000012000E0002030BD1AB183890B43838184
:1025200002E083898B438381704700000022028888
:10253000184B98420ED0184B98420BD0B0F1804FF8
:1025400008D0164B984205D0154B984202D0154B37
:10255000984204D14FF68F731A404B881A43124B9E
:10256000984207D0114B984204D04FF6FF431A40CF
:102570000B891A4302804B68C3620B880385054BA5
:10258000984202D0044B984201D18B7A03860123F2
:1025900083827047000001400004014000040040B5
:1025A00000080040000C00400010004000140040F3
:1025B0007FB505460C4601210846FFF7E9FC029568
:1025C000ADF804400020ADF80600ADF80C0001A9FC
:1025D0004FF08040FFF7AAFF1C208DF8000002207A
:1025E0008DF8010001208DF802008DF80300684687
:1025F000FFF774FB012211469007FFF78DFF0121C1
:102600008807FFF76CFF7FBD014908607047000035
:102610006C01002010B5FEF7EDF810BD10B5FFF706
:10262000A3FB10BD21B1828942F40052828104E0F3
:1026300082894DF6FF731A4082817047024600205E
:10264000B1F5007F00D100BF13880B400BB1012012
:1026500000E00020704770B50246002400230025EA
:10266000002040F66A16B14200D100BFC1F3421506
:1026700001F01F03012606FA03F3012D02D196890A
:10268000334006E0022D02D1168A334001E0968ADB
:1026900033400C12012606FA04F41688344013B1B4
:1026A0000CB1012000E0002070BDF0B5034600240D
:1026B00000260025002040F66A17B94200D100BF6D
:1026C0001846C1F3421401F01F06012707FA06F568
:1026D000012C01D10C3004E0022C01D1103000E0BB
:1026E00014301AB107682F43076002E00768AF4350
:1026F0000760F0BD2DE9FF4705460E460024A146C0
:1027000000BFA046B08900B100BF2C8A24F4405419
:10271000F08804432C82AC8941F20C608443B08879
:1027200031890843718908430443AC81AC8A24F49D
:102730004074B0890443AC826846FFF759FC2048D6
:10274000854202D01F48854202D1DDF80C9001E09D
:10275000DDF80890A88900F4004040B109EBC900F9
:1027600000EB091031684900B0FBF1F707E009EB15
:10277000C90000EB091031688900B0FBF1F7642053
:10278000B7FBF0F004012009642101FB1078A8894F
:1027900000F4004040B1322000EBC800B0FBF1F083
:1027A00000F00700044308E0322000EB0810642129
:1027B000B0FBF1F000F00F0004432C81BDE8FF876F
:1027C000001001400014014001468888C0F3080051
:1027D0007047C1F3080282807047000010B588B0CE
:1027E000044602208DF81C008DF81D0000208DF895
:1027F0001E0001208DF81F0001210220FFF7B8FB09
:10280000C020069006A91E48FEF739FC01211020C1
:10281000FFF7CEFB072206211948FEF778FC0722B6
:1028200011461748FEF773FC01940020ADF808002C
:10283000ADF80A00ADF80C00ADF810000C20ADF8B2
:102840000E0001A90F48FFF755FF25208DF8140051
:1028500000208DF8150001208DF816008DF8170066
:1028600005A8FFF73BFA012240F225510548FFF782
:102870001CFF01210348FFF7D5FE08B010BD000082
:10288000000402400010014010B5044621460548EE
:10289000FFF79FFF00BF80210248FFF7CFFE00280F
:1028A000F9D010BD0010014010B588B004460220D8
:1028B0008DF81C008DF81D0000208DF81E000120F1
:1028C0008DF81F0001210220FFF752FB4FF44060FA
:1028D000069006A91E48FEF7D2FB01218804FFF7E7
:1028E00057FB07220A211A48FEF711FC07220B2189
:1028F0001748FEF70CFC01940020ADF80800ADF875
:102900000A00ADF80C00ADF810000C20ADF80E0078
:1029100001A91048FFF7EEFE27208DF814000020D3
:102920008DF8150003208DF8160001208DF8170092
:1029300005A8FFF7D3F9012240F225510548FFF71A
:10294000B4FE01210348FFF76DFE08B010BD000082
:10295000000402400048004010B5044621460548E6
:10296000FFF737FF00BF80210248FFF767FE00280E
:10297000F9D010BD0048004000BFFEE77FB5044617
:102980000420FFF715FD194804706846FFF730FB77
:102990004FF47A720198B0FBF2F1481EB0F1807FDB
:1029A00000D31BE0481E4FF0E022506150170F2269
:1029B000002807DA13071E0E0D4B00F00F052D1F20
:1029C0005E5503E013071D0E0A4B1D5400BF002087
:1029D0004FF0E02290610720106100BF0649009887
:1029E000B0FBF1F0054908607FBD00005C010020EC
:1029F00018ED00E000E400E040420F005801002024
:102A000070B5074B19685A6800BF0D1842F10003F2
:102A1000034C26686468751B9C41F6D370BD0000AA
:102A20005001002030B50446FFF71CFD054600BFED
:102A3000FFF718FD401BA042FAD330BD4FF4A06051
:102A4000FFF788F9A820FFF799FFFDF725FFFEF7AC
:102A5000C9F8FFF7FFFB01E0FDF762FFFCE7014665
:102A600048798A79801A0A79104070470146487976
:102A70008B79C01A0B791840002809DD8B7908681A
:102A8000C25C8879401C0B791840887110467047E9
:102A90004FF0FF30FBE70160531E037100234371C9
:102AA00083717047024650799379C01A13791840A0
:102AB000984201D10020704753791068C154507971
:102AC000401C1379184050710120F4E74FF040701A
:102AD000E1EE100A70470000FFFFC8000000000090
:102AE000002B00080000002074010000C401000851
:102AF000682B000874010020B40A000020020008BE
:102B000011357313C80113FF035009503CBEFF0376
:102B10000224243A01021114FD01FE12FE12FF2AC2
:102B2000030419103E9632FA32FA1012021A7F028A
:102B30004AFF28191A12011A07181912116A7F146C
:102B4000095C0212021A01017A0208890E691469ED
:102B5000126902B90D09100201392D0102030404A2
:082B6000052406070809000026
:040000050800018965
:00000001FF
